:100000000C9440000C9468000C9468000C946800F8
:100010000C9468000C9468000C9468000C946800C0
:100020000C9468000C9468000C9468000C946800B0
:100030000C9468000C946A000C9468000C9468009E
:100040000C9468000C9468000C9468000C94680090
:100050000C9468000C9468000C9468000C94680080
:100060000C9468000C9468000C9468000C94680070
:100070000C9468000C9468000C94680097159B150C
:1000800011241FBECFEFD8E0DEBFCDBF11E0A0E04E
:10009000B1E0E4EAFCE202C005900D92AC39B10790
:1000A000D9F721E0ACE9B1E001C01D92A13FB20750
:1000B000E1F710E0CFE3D0E004C02197FE010E94F9
:1000C000E615CE33D107C9F70E9490150C9431166E
:1000D0000C9400001F920F920FB60F9211242F93D1
:1000E0003F934F935F936F937F938F939F93AF93C0
:1000F000BF93EF93FF938CE991E00E942305FF915A
:10010000EF91BF91AF919F918F917F916F915F918F
:100110004F913F912F910F900FBE0F901F90189508
:10012000EF92FF920F931F93CF93DF93EC010E9406
:10013000830741E050E064EA7FE1CE0106960E9429
:10014000F40A70E060E0CE014A960E942D0570E04E
:1001500060E0CE014C960E942D05CE014E960E9485
:100160003A0A01E020E041E250E062E270E0CE01B4
:100170004F960E94EA06CE0185960E94C7051EA2F0
:1001800018A61FA21AA619A68E01055D1F4F7E0193
:100190008FE3E80EF11C20E050E040E070E060E00A
:1001A000C8010E94890A0B5F1F4F0E151F0599F7A2
:1001B0001FAE8E01005C1F4FCC5ADF4F20E050E095
:1001C00040E070E060E0C8010E94890A0B5F1F4FA9
:1001D0000C171D0799F7F8011082DF91CF911F913D
:1001E0000F91FF90EF900895CF93DF93EC01EFA173
:1001F000F8A5EA30F10540F4E25CF94E0C94E615FE
:1002000081E090E098A78FA3DF91CF91089582E0DD
:1002100090E0F8CF83E090E0F5CF84E090E0F2CF7B
:1002200085E090E0EFCF86E090E0ECCF0E945005B3
:10023000882319F087E090E0E5CF0E945F058823CE
:1002400019F389E090E0DECF88E090E0DBCF0F93F8
:100250001F93CF93DF93EC018C010A5F1F4FC801FE
:100260000E94D60B64E670E0CE010E94F908CE0130
:100270000E946808CE010E94040A8111F8CFC801CB
:100280000E94E70BCE010E94ED07809184009091BF
:1002900085009AA789A7CE01DF91CF911F910F9179
:1002A0000C94C9090F931F93CF93DF93EC010E9425
:1002B000D5078E010A5F1F4FC8010E94D60B2FE39E
:1002C00080E69AE0215080409040E1F700C00000B5
:1002D000CE010E942A0A811107C08091840090916A
:1002E0008500893C9243A0F3C8010E94E70BCE0130
:1002F0000E94ED07809184009091850001E010E05C
:10030000893C924308F051C0CE010E942A0ACE01D6
:100310000E94ED078FEF97E823E181509040204045
:10032000E1F700C00000CE010E9485078FE798E04A
:1003300029E0815090402040E1F700C00000CE014C
:100340000E94ED078FEF97E823E181509040204015
:10035000E1F700C00000CE010E94040A082F10E05F
:100360000E5F1F4F24E14EE160E0CE010E943C0889
:10037000CE010E949507CE010E94040A8823D9F17C
:100380008FE798E029E0815090402040E1F700C0DD
:100390000000CE010E94ED078FEF97E823E1815026
:1003A00090402040E1F700C00000CE010E941C09EF
:1003B0008FEF9CEB2FE1815090402040E1F700C08F
:1003C0000000CE010E94140A8823D9F3CE010E94B6
:1003D000ED078FEF97E823E1815090402040E1F74F
:1003E00000C00000CE010E94C508C801DF91CF9176
:1003F0001F910F910895CE010E94040A8823D9F31A
:10040000C8CFBF92CF92DF92EF92FF920F931F93CC
:10041000CF93DF9300D000D00F92CDB7DEB78C0121
:100420007C0186E0E80EF11C85E0B82EC7010E9431
:10043000D60BC8010E946808C8010E94F9098823E8
:10044000C1F3C8010E94ED07C8010E944F09C8010D
:100450000E94040A811114C0C8010E947A09C801CF
:100460000F900F900F900F900F90DF91CF911F91F1
:100470000F91FF90EF90DF90CF90BF900C94C9093F
:10048000C7010E94E70BC0908400D0908500C8018E
:100490000E945201BC0120E0A601CE0101960E94FB
:1004A000890AF80197AD81E0890F87AFD801B99E1D
:1004B000A00DB11D11249B96FE0131969B2D01903C
:1004C0000D929A95E1F7853008F4B0CF0F900F9018
:1004D0000F900F900F90DF91CF911F910F91FF9090
:1004E000EF90DF90CF90BF900895CF93DF93D82FF8
:1004F000C92F8D2F9C2F0E9468088D2F9C2F0E9442
:10050000040A8111F6CF8D2F9C2F0E94ED078D2FAD
:100510009C2FDF91CF910C94C9099F92AF92BF920B
:10052000CF92DF92EF92FF920F931F93CF93DF93BF
:1005300000D000D00F92CDB7DEB78C016BE470E035
:100540000E94F908780186E0E80EF11C6801E4E5F4
:10055000CE0ED11C85E0982EC7010E94D60BC80193
:100560000E946808C8010E94F9098823C1F3C801E4
:100570000E94ED07C8010E944F09C8010E94040AA9
:10058000811119C0C7010E94E70BC8010E947A09B6
:10059000C8010F900F900F900F900F90DF91CF91A7
:1005A0001F910F91FF90EF90DF90CF90BF90AF9091
:1005B0009F900C94C909C7010E94E70BA09084008A
:1005C000B0908500C8010E945201BC0120E0A50145
:1005D000CE0101960E94890AF601908181E0890F7F
:1005E0008083D801999EA00DB11D1124A05CBF4F3E
:1005F000FE013196992D01900D929A95E1F7853083
:1006000008F4AACF0F900F900F900F900F90DF91EA
:10061000CF911F910F91FF90EF90DF90CF90BF90FF
:10062000AF909F900895CF93DF93D82FC92F8D2F30
:100630009C2F0E94C5088D2F9C2F0E94350A88236D
:10064000B1F38D2F9C2F0E94ED072FEF87E893E1E8
:10065000215080409040E1F700C000006BE470E062
:100660008D2F9C2F0E94F9088D2F9C2F0E946808C7
:100670008D2F9C2F0E94EE098823B1F38D2F9C2F84
:100680000E94ED072FEF87E893E1215080409040D2
:10069000E1F700C000008D2F9C2F0E942A0A8111D3
:1006A0000CC08D2F9C2F0E94090A811106C08D2F2E
:1006B0009C2F0E941F0A882371F38D2F9C2FDF919E
:1006C000CF910C94A50908954F960C940D071F9394
:1006D000CF93DF9313E0EC016E966BE4CE010E94A2
:1006E000540A2FE788E391E0215080409040E1F7E1
:1006F00000C00000CE010E94690A2FE788E391E064
:10070000215080409040E1F700C00000115029F7CF
:10071000CE01DF91CF911F910C94690A8F929F9225
:10072000AF92BF92CF92DF92EF92FF920F931F93FF
:10073000CF93DF93CDB7DEB7AB970FB6F894DEBF9C
:100740000FBECDBF8C014F960E9460072FEF83ED47
:1007500090E3215080409040E1F700C00000B801D4
:10076000655D7F4FF80147AD81A592A50E94900A73
:100770004801F4E58F0E911C580120E4A20EB11C33
:10078000F4014081B501F80181A592A50E94900A6B
:10079000CE0101967C018BE2F70111928A95E9F76F
:1007A00020E050E040E070E060E0C7010E94890A6C
:1007B00020E050E040E070E060E0CE0106960E944C
:1007C000890A20E050E040E070E060E0CE010B9646
:1007D0000E94890A20E050E040E070E060E0CE0135
:1007E00040960E94890AF80187AD8D8B6E01F6E173
:1007F000CF0ED11C20E050E040E070E060E0C60188
:100800000E94890A20E050E040E070E060E0CE0104
:100810004B960E94890A20E050E040E070E060E0E2
:10082000CE0180960E94890A20E050E040E070E00E
:1008300060E0CE0185960E94890AF40140814AA7B2
:1008400020E0B501C60135E0F80157AD2517F0F0FD
:10085000F5E04F9FA00111240E942816B701C8019E
:1008600085960E948A06AB960FB6F894DEBF0FBE3F
:10087000CDBFDF91CF911F910F91FF90EF90DF904F
:10088000CF90BF90AF909F908F900895329FF001CE
:100890001124D701AE0FBF1FE00FF11FBB96532FDE
:1008A00001900D925A95E1F72F5FCECFCF92DF9254
:1008B000EF92FF920F931F93CF93DF93CDB7DEB7E5
:1008C00065970FB6F894DEBF0FBECDBF8C017C01DB
:1008D00086E0E80EF11C70E060E0C7010E94160B94
:1008E00064E670E0C7010E94380BCE0145960E9475
:1008F000FB12CE0144960E94690CCE0143960E94E1
:100900007905AE014B5E5F4FBE016C5E7F4FCE013D
:1009100001960E94110DBE016D5E7F4FCE0145967E
:100920000E94E514A801455D5F4FF80127ADBE01A7
:100930006D5E7F4FCE0101960E94120DF80147AD0A
:10094000BE016D5E7F4FCE0101960E94A80EBE01D2
:100950006D5E7F4FCE0145960E947E13BE016D5E97
:100960007F4FCE0145960E9465136801F0E4CF0EDB
:10097000D11C0C5A1F4FF8012081A601BE016D5EEB
:100980007F4FCE0101960E94C70DF8012081A6017C
:10099000BE016D5E7F4FCE0101960E94770EF80179
:1009A0002081A601BE016D5E7F4FCE0101960E949F
:1009B000170FBE016D5E7F4FCE0145960E94FD135D
:1009C00061E070E0C7010E94160B64EA7FE1C70195
:1009D0000E94380B65960FB6F894DEBF0FBECDBFF0
:1009E000DF91CF911F910F91FF90EF90DF90CF900B
:1009F0000895DC019796ED91FC91EA30F105B8F489
:100A0000E85BF94E0C94E6150C9427010C94010256
:100A10000C9475020C948D020C9413034F960C9455
:100A20000D070C9467030C948E030C9456040895E0
:100A3000D82FC92F8D2F9C2F0E94F9048D2F9C2F0A
:100A40000E94F400F7CFFC0126A12F5F26A34F964A
:100A500020FF0C9429070C946007FC0171836083CC
:100A600052980A980895FC0180819181892B49F060
:100A7000F894808191818130910521F0029751F0A5
:100A8000789408955298E89A8091690083608093E1
:100A90006900F6CF0A98EA9A809169008063F7CFDF
:100AA0004A9B0BC08FE295E70197F1F700C0000069
:100AB00089B182FB882780F9089580E00895029922
:100AC0000DC08FE295E70197F1F700C0000080B1FB
:100AD00082FB882780F991E08927089580E00895B6
:100AE000E1ECF0E080818F7E80838081886080836C
:100AF00008959C011092C5008FEC8093C400E2EC35
:100B0000F0E0908196609083C9010C947005E1EC4F
:100B1000F0E08081806180838081877F8083089579
:100B20008091C00087FFFCCF8091C600089580911E
:100B3000C00085FFFCCF6093C60008950F931F93FC
:100B4000CF93DF93D82FC92F8B01FB0160810E94C7
:100B50009705F80161818D2F9C2FDF91CF911F9117
:100B60000F910C9497050F931F93CF93DF93182F3A
:100B7000092FEB016991611105C0DF91CF911F91A0
:100B80000F910895812F902F0E949705F3CF8AB17E
:100B900080638AB95C980895E0E8F0E080818F77FF
:100BA000808380818064808380818F7C808380814A
:100BB0008C7F8083E1E8F0E08081886080838081A1
:100BC0008F7E80838081897F808380818160808324
:100BD00088E690E090938900809388000895E1E88A
:100BE000F0E08081897F80838081816080830895A7
:100BF000E1E8F0E08081887F80835D980895CF935D
:100C0000DF93D82FC92F0E94EF058FEB92E1019758
:100C1000F1F700C000008D2F9C2F0E94F8058FEA8D
:100C200094E00197F1F700C00000DF91CF910895A3
:100C3000CF93DF93D82FC92F0E94EF058FEA94E05E
:100C40000197F1F700C000008D2F9C2F0E94F8053E
:100C50008FEA94E00197F1F700C00000DF91CF9197
:100C60000895CF93DF93D82FC92F0E94EF058FE50A
:100C700099E00197F1F700C000008D2F9C2F0E9492
:100C8000F8058FEA94E00197F1F700C00000DF91CA
:100C9000CF910895CF92DF92FF920F931F93CF933E
:100CA000DF93182F092FF62ED0E0C0E0CC24C39498
:100CB000D12CC6010C2E01C0880F0A94EAF78F21AF
:100CC00081F0812F902F0E9431062196C830D105E6
:100CD00081F7DF91CF911F910F91FF90DF90CF901F
:100CE0000895812F902F0E941806EFCF1F93CF9366
:100CF000DF93D82FC92F162F0E94CC058D2F9C2F44
:100D00000E94FF05612F8D2F9C2FDF91CF911F91A6
:100D10000C944A06CF92DF92EF92FF920F931F93AB
:100D2000CF93DF93EC018B01CB010E94B50AF82E23
:100D3000E92ECE010E94CC05CE010E94FF056E2D4A
:100D4000CE010E944A066F2DCE010E944A06F8018C
:100D50006489CE010E944A06F80161A5CE010E9475
:100D60004A06F12C95E0E92EF8018489F81680F006
:100D7000F12C85E0E82EF80181A5F816D0F0DF917E
:100D8000CF911F910F91FF90EF90DF90CF9008953A
:100D90006801EF9CC00CD11C1124F6016081CE01CA
:100DA0000E944A06F6016481CE010E944A06F3942D
:100DB000DBCF6801EF9CC00CD11C1124F6016589C2
:100DC000CE010E944A06F601618DCE010E944A06BC
:100DD000F394D1CF0F93DC01FA012C9311960C936D
:100DE000119713967C936E93129715961C921E92F0
:100DF0001497308181E090E0AC0101C0440F2A9546
:100E0000EAF7232F242B2083208101C0880F0A9525
:100E1000EAF7822B80830F910895FC0181E090E036
:100E200095838483A281B3812C913081AC0101C070
:100E3000440F3A95EAF7242B2C93A281B3812C918D
:100E4000318101C0880F3A95EAF7809582238C930F
:100E50000895FC0182E090E095838483A281B381B0
:100E60002C91318181E090E0AC0101C0440F3A95B2
:100E7000EAF7242B2C93A281B3812C91308101C0FD
:100E8000880F3A95EAF7809582238C930895CF9343
:100E9000DF93D82FC92F0E9429078FE19EE4019785
:100EA000F1F700C000008D2F9C2F0E940D078FE0EE
:100EB00097E20197F1F700C00000DF91CF9108950C
:100EC000FC0115821482A281B3814C91208181E0C2
:100ED00090E0BC0102C0660F771F2A95E2F79B01E4
:100EE000209524232C93A281B3812C91318101C0C0
:100EF000880F3A95EAF7809582238C930895FC0138
:100F00008481958108950C944C0CCF93DF93EC0170
:100F100061E00E943C0C6C81CE010E94100C6D813E
:100F2000CE01DF91CF910C94200CCF93DF93EC0195
:100F300060E00E943C0C6C81CE010E94100C6D811F
:100F4000CE01DF91CF910C94200CCF93DF93D82F5B
:100F5000C92F6BE40E94100C6BE48D2F9C2F0E9414
:100F6000200C60E08D2F9C2F0E94300C61E08D2FB3
:100F70009C2FDF91CF910C94360CCF93DF93D82F19
:100F8000C92F6BE40E94100C6BE48D2F9C2F0E94E4
:100F9000200C61E08D2F9C2F0E94300C60E08D2F83
:100FA0009C2FDF91CF910C94360CCF93DF93D82FE9
:100FB000C92F61E00E94300C60E08D2F9C2F0E94B1
:100FC000360C63E28D2F9C2F0E94100C60E38D2F56
:100FD0009C2FDF91CF910C94200C60E00C94FF0BC0
:100FE0000C94ED07CF93DF93D82FC92F0E94A5074C
:100FF0002FE38DEA92E1215080409040E1F700C05C
:1010000000008D2F9C2FDF91CF910C94ED07CF9393
:10101000DF93D82FC92F0E94BD072FE38DEA92E1FD
:10102000215080409040E1F700C000008D2F9C2FA0
:10103000DF91CF910C94ED07FC01653618F46483C1
:101040000C94100C0895FC016583653610F40C9423
:10105000200C0895CF93DF93EC01653650F46C8338
:101060006D830E941C086D81CE01DF91CF910C949D
:101070002308DF91CF9108950F931F93CF93DF93B0
:10108000D82FC92F042F122F0E943C0C602F8D2FB8
:101090009C2F0E94100C612F8D2F9C2FDF91CF91E0
:1010A0001F910F910C94200C2EE143E261E00C940F
:1010B0003C082EE148E261E00C943C082AE24EE153
:1010C00061E00C943C082DE24EE161E00C943C0898
:1010D000CF93DF93EC0189819A810E947815811169
:1010E00014C02FEF80E792E0215080409040E1F75C
:1010F00000C0000089819A810E947815811142C048
:10110000CE01DF91CF910C94ED0789819A810E94E5
:10111000861581112CC089819A810E944F158823E0
:1011200029F0CE01DF91CF910C94630889819A81D7
:101130000E945215882329F0CE01DF91CF910C94A3
:101140005E0889819A810E945B15882329F0CE016F
:10115000DF91CF910C94590889819A810E9458158A
:10116000882381F0CE01DF91CF910C9454082FE1B8
:1011700043E261E0CE010E943C08CE01DF91CF91B5
:101180000C948507DF91CF910895CF93DF93EC0105
:1011900089819A810E948615882319F0DF91CF9169
:1011A000089589819A810E944F15882321F0CE01EC
:1011B0000E946308EDCF89819A810E94521588238D
:1011C00021F0CE010E945E08E3CF89819A810E94BE
:1011D0005B15882321F0CE010E945908D9CF89815F
:1011E0009A810E945815882399F2CE010E945408D2
:1011F000CFCF0F931F93CF93DF93EC018B0184E646
:101200008C838D8364E6CE010E941C086D81CE0123
:101210000E94230890E080E08017910729F4DF9175
:10122000CF911F910F910895EFECF7E03197F1F70F
:1012300000C000000196F0CFCF93DF93D82FC92FC5
:1012400060E00E94300C61E08D2F9C2F0E94360CD4
:1012500064E670E08D2F9C2F0E94F90863E28D2FC9
:101260009C2F0E94100C60E38D2F9C2FDF91CF915B
:101270000C94200CCF93DF93EB010E94ED0790E0DC
:1012800080E08C179D0719F4DF91CF910895EFEC62
:10129000F7E03197F1F700C000000196F2CFCF934D
:1012A000DF93D82FC92F68EE73E00E943A096BE4F0
:1012B00070E08D2F9C2F0E94F9088D2F9C2F0E948B
:1012C00085072FE38FEE97E0215080409040E1F7B3
:1012D00000C000008D2F9C2F0E94ED072FEF81EEA4
:1012E00094E0215080409040E1F700C00000DF9181
:1012F000CF910895CF93DF93D82FC92F68EE73E075
:101300000E943A096BE470E08D2F9C2F0E94F9082F
:101310008D2F9C2F0E9495072FEB89E396E021509B
:1013200080409040E1F700C000008D2F9C2F0E946C
:10133000ED072FEF81EE94E0215080409040E1F7DF
:1013400000C00000DF91CF910895CF93DF93EC01AF
:101350000E944F09CE010E941C092FEF87E893E1FC
:10136000215080409040E1F700C0000089819A81BF
:101370000E9455158823D1F364EF71E0CE010E94DD
:101380003A09CE010E94C508CE01DF91CF910C949D
:10139000ED07CF93DF93EC010E944F09CE010E942D
:1013A000D50789819A810E9458158823D1F36CE270
:1013B00071E0CE010E943A09CE010E94C508CE011B
:1013C0000E94ED072FEF82E597E02150804090408A
:1013D000E1F700C00000DF91CF910895FC01818109
:1013E00092810E946915982F81E0911101C080E0DF
:1013F0000895FC01818192810E945E15982F81E001
:10140000911101C080E00895FC01818192810C94CA
:101410007815FC01818192810E945215982F81E0FC
:10142000911101C080E00895FC01818192810E94A8
:101430004F15982F81E0911101C080E00895FC01C3
:10144000818192810E945815982F81E0911101C0ED
:1014500080E00895FC01818192810E945515982FAA
:1014600081E0911101C080E00895FC0181819281A9
:101470000C9486151092B200E0EBF0E0808180645D
:10148000808380818F778083808182608083808168
:101490008E7F8083E1EBF0E08081877F80838AB15B
:1014A000806C8AB95E9808958091B10086608093BF
:1014B000B1008091B1008E7F8093B1006D52653292
:1014C00038F4E62FF0E0E050FF4F80818093B300C6
:1014D00008951092B300E1EBF0E08081887F808373
:1014E00008958627682F62956827062E669566956B
:1014F0006025062E669560256770082E892F6695F3
:1015000007946795902D86270694679590258627E2
:101510000895FC017183608353834283248308957B
:101520000F931F93CF93DF93EC01FB01319720E0E2
:101530000FE010E0241305C0DF91CF911F910F91B0
:10154000089530E02111308163817481C69FC0010C
:10155000C79F900DD69F900D1124B8010E949F1532
:10156000360F35832F5F3596E5CFDF92EF92FF92EE
:101570000F931F93CF93DF93EC01DC886D2D8FEFDA
:101580009FEF0E94710AE9A46E2D0E94710A8E01DC
:10159000F12CDF100CC010E02596E11214C0DF9191
:1015A000CF911F910F91FF90EF90DF900895F80178
:1015B00060810E94710AF80164810E94710AF394AB
:1015C0000B5F1F4FE6CF68890E94710A6C890E94E9
:1015D000710A1F5FE1CF9C010197039718F481E026
:1015E000820F089580E00895FC018FEF9FEF9183B3
:1015F000808388EE93E09383828388E090E09583F4
:10160000848381E490E0978386838CE092E09187E5
:10161000808781E398E09387828784EC90E29587C6
:10162000848757874687738B628B0895FC01CB01B3
:10163000F89477876687209180002C7F2093800024
:1016400020918100277E20938100892B29F0623030
:10165000710541F0789408958091810088608093AD
:101660008100F8CF80918000816080938000F2CF6C
:10167000CF93DF9300D000D000D0CDB7DEB78D83FD
:101680009E83F894ED81FE81628B738B10928500AE
:101690001092840080918100887F809381008289EC
:1016A0009389009779F0248135812817390708F448
:1016B00040C081E090E0918B808B809181008160BF
:1016C00080938100ED81FE812281338150E040E0F2
:1016D00060E072E18AE790E00E94C715ED81FE812B
:1016E000A289B3890E94EC1569837A838B839C83DA
:1016F0002089318950E040E00E94C715309389006D
:101700002093880010928200ED81FE818685978566
:10171000019729F080916F00826080936F00789428
:1017200026960FB6F894DEBF0FBECDBFDF91CF91E6
:101730000895ED81FE81268137812817390740F011
:1017400088E090E0918B808B809181008260B8CF9F
:10175000ED81FE81208531852817390740F080E42E
:1017600090E0918B808B809181008360A9CFED8187
:10177000FE81228533852817390740F080E091E00B
:10178000918B808B8091810084609ACFED81FE8166
:10179000248535852817390708F494CF80E094E034
:1017A000918B808B8091810085608ACFCF93DF936E
:1017B000EC01F8946E857F850E94160B6A897B89FF
:1017C000CE010E94380B7894DF91CF910895F89460
:1017D000E1E8F0E08081887F80837894089524E6B2
:1017E00030E0A901461B51096FEF649FC001659F5E
:1017F000900D1124B9010E94B315862F089524E697
:1018000030E0A901461B51096FEF649FC001659F3D
:10181000900D1124B9010E94B31567BD68BD0895EC
:1018200024E630E0A901461B51096FEF649FC00117
:10183000659F900D1124B9010E94B31567BD0895ED
:1018400024E630E0A901461B51096FEF649FC001F7
:10185000659F900D1124B9010E94B31568BD0895CC
:10186000662311F02A9808952A9A0895662311F0A4
:101870002D9808952D9A08951F93CF93DF93D82F15
:10188000C92F162F0E94300C612F8D2F9C2FDF91B6
:10189000CF911F910C94360C9C0194B19C6394B928
:1018A00094B5916094BD94B59D7F94BD95B5977F97
:1018B00095BD95B5926095BD95B59A7F95BD94B54A
:1018C000906F94BD8FEF87BD88BD61E0C9010C9416
:1018D0003C0C0895CB0165E271E00C94B305CB019B
:1018E00069E271E00C94B305CB016DE271E00C94F8
:1018F000B305CB0161E371E00C94B305CB0165E363
:1019000071E00C94B305CB0169E371E00C94B3056D
:10191000CB016DE371E00C94B3050F931F93CF934C
:10192000DF93162F072FC42FD0E0DC1305C0DF9103
:10193000CF911F910F91089561E471E0812F902F55
:101940000E94B305DF5FF1CF0F931F93CF93DF9317
:10195000162F072FC42FD0E0DC1305C0DF91CF91E5
:101960001F910F91089565E471E0812F902F0E94DF
:10197000B305DF5FF1CFCB0169E471E00C94B305EF
:10198000CB016DE471E00C94B305CB0161E571E02E
:101990000C94B3050F931F93CF93DF93162F072F4C
:1019A000C42FD0E0DC1305C0DF91CF911F910F91C0
:1019B000089565E571E0812F902F0E94B305DF5FE8
:1019C000F1CFCB0169E571E00C94B305CB016DE576
:1019D00071E00C94B305CB0161E671E00C94B305A2
:1019E000CB0165E671E00C94B305CB0169E671E0CB
:1019F0000C94B3050F931F93CF93DF93162F072FEC
:101A0000C42FD0E0DC1305C0DF91CF911F910F915F
:101A100008956BE671E0812F902F0E94B305DF5F80
:101A2000F1CF08958F929F92AF92BF92CF92DF92A3
:101A3000EF92FF920F931F93CF93DF938C01D62FDA
:101A4000C72F6A01922E6DE671E08D2F9C2F0E94A8
:101A5000B3057601580182E0A80EB11CD12CC12C2F
:101A6000D9101AC040E34D194C196D2F7C2FC801B5
:101A70000E94CA0C61E571E08D2F9C2FDF91CF9100
:101A80001F910F91FF90EF90DF90CF90BF90AF909C
:101A90009F908F900C94B305F701808191810E94F3
:101AA000EB0AF5018483F7018480F82DFC19CF2E11
:101AB0004F2F6D2F7C2FC8010E94CA0C6D2F7C2FD9
:101AC000C8010E946A0CF501C1925F01D394F5E050
:101AD000EF0EF11CC82CC4CFAF92BF92CF92DF9211
:101AE000EF92FF920F931F93CF93DF93EC018B0143
:101AF000B42E0E94E60CCE0102967C01D12CC12CA2
:101B0000DB1015C040E34D194C19B801CE010E94FD
:101B1000FA0CB801CE01DF91CF911F910F91FF9088
:101B2000EF90DF90CF90BF90AF900C94E60CF70150
:101B3000A1907F014A2DB801CE010E94FA0CF70155
:101B40008381882359F0B801CE010E94E60CF70189
:101B5000838181508383CA0CD394D2CF41E0B801F2
:101B6000CE010E94FA0CF7CF0F931F93CF93DF9310
:101B70008B01EC012196CE010E94651348E0B8016B
:101B8000CE01DF91CF911F910F910C94FD12CF9256
:101B9000DF92EF92FF920F931F93CF93DF937A011F
:101BA000CFEFC20F0C2E000CDD0B8E01055F1F4F17
:101BB000080F191F85E0D82E94E0C92EC7FF09C071
:101BC000DF91CF911F910F91FF90EF90DF90CF9019
:101BD0000895DC9EF001DD9EF00D1124EE0DFF1D39
:101BE000808191810E94EB0AF80182938F01FC2D84
:101BF000F81B8F2FF80184832197E0CF6F927F929B
:101C00008F929F92AF92BF92CF92DF92EF92FF920C
:101C10000F931F93CF93DF93EC018B014A01A22E08
:101C20000E94E60CCC24CA94CA0C0C2C000CDD08D3
:101C30007E01EC0CFD1CB12C80E3782E95E0692E22
:101C4000C7FE1FC040E34A194B19B801CE010E94DC
:101C5000FA0CB801CE010E94E60C48E0B801CE01B2
:101C60000196DF91CF911F910F91FF90EF90DF9040
:101C7000CF90BF90AF909F908F907F906F900C947B
:101C8000FD12472D4B196C9CF0016D9CF00D112439
:101C9000E80DF91D8481481BB40EB801CE010E94E5
:101CA000FA0CF7018685811118C08285882379F0A6
:101CB000B801CE010E94E60CF7018285815082872F
:101CC000F1E0CF1AD10881E0E81AF108B9CF41E07C
:101CD000B801CE010E94FA0CF3CF41E0B801CE0169
:101CE0000E94FA0CF701868581508687E9CFAF9272
:101CF000BF92CF92DF92EF92FF920F931F93CF93F9
:101D0000DF938C01D62FC72FD42EE52EC22E84E070
:101D1000F82E58018FEFA81AB80A2C2D4D2D5E2DE4
:101D20006D2F7C2FC8010E94FE0D6D2F7C2FC501E9
:101D30000E946513FA94F110F0CFDF91CF911F91BB
:101D40000F91FF90EF90DF90CF90BF90AF900895EC
:101D5000CF92DF92EF92FF920F931F93CF93DF9377
:101D60008C01D62FC72FC42E94E0D92E78018FEF87
:101D7000E81AF80A48E06D2F7C2FC7010E94FD1277
:101D800049E16D2F7C2FC8010E94FA0C6D2F7C2F2A
:101D9000C8010E94BB0C4AE06D2F7C2FC8010E9435
:101DA000FA0C4C2D6D2F7C2FC8010E946C0DDA941B
:101DB000D110E0CF82E0D82E48E06D2F7C2FC701F4
:101DC0000E94FD1249E16D2F7C2FC8010E94FA0C80
:101DD0006D2F7C2FC8010E94BB0C4AE06D2F7C2F19
:101DE000C8010E94FA0C6D2F7C2FC8010E94E60CDE
:101DF00040E36D2F7C2FC8010E94FA0C6D2F7C2FC1
:101E0000C8010E94E60C81E0D8120EC048E06D2F98
:101E10007C2FC701DF91CF911F910F91FF90EF9021
:101E2000DF90CF900C94FD12DD24D394C5CF7F9228
:101E30008F929F92AF92BF92CF92DF92EF92FF92DA
:101E40000F931F93CF93DF937C01D62FC72F5A0197
:101E5000C22E61E771E08D2F9C2F0E94B3050FEF1A
:101E60000C0D002E000C110BD12C80E3882E95E078
:101E7000792E07FF1BC040E34C194D196D2F7C2FA5
:101E8000C7010E94CA0C65E771E08D2F9C2FDF917E
:101E9000CF911F910F91FF90EF90DF90CF90BF9067
:101EA000AF909F908F907F900C94B305982C9D18C5
:101EB000709EF001719EF00D1124EA0DFB1D8481CE
:101EC000981A492D6D2F7C2FC7010E94CA0C6D2FC7
:101ED0007C2FC7010E94740CD90C01501109C9CF85
:101EE000DF92EF92FF920F931F93CF93DF937C01CA
:101EF000D62FC72FD42E8C010F5F1F4F48E0C8018B
:101F00000E94FD124BE06D2F7C2FC7010E94FA0C3E
:101F100044E06D2F7C2FC7010E948D0C2AE04AE01F
:101F20006D2F7C2FC8010E94E0134D2D6D2F7C2F4B
:101F3000C7010E946C0D48E06D2F7C2FC8010E94E4
:101F4000FD124AE06D2F7C2FC7010E94FA0C44E07D
:101F50006D2F7C2FC8010E9494142AE049E06D2F58
:101F60007C2FC8010E94E0134D2D6D2F7C2FC701DF
:101F70000E946C0D48E06D2F7C2FC8010E94FD125D
:101F800049E06D2F7C2FC7010E94FA0C46E06D2FAF
:101F90007C2FC8010E94CA142AE048E06D2F7C2FD4
:101FA000C8010E94E0134D2D6D2F7C2FC7010E94A8
:101FB0006C0D48E06D2F7C2FC8010E94FD1249E096
:101FC0006D2F7C2FC7010E94FA0C46E06D2F7C2FED
:101FD000C8010E9430152AE048E06D2F7C2FC8010F
:101FE0000E94E0134D2D6D2F7C2FC7010E946C0DB8
:101FF00048E06D2F7C2FC8010E94FD1249E06D2F33
:102000007C2FC7010E94FA0C46E06D2F7C2FC8017F
:102010000E94CA142AE048E06D2F7C2FC8010E945C
:10202000E0134D2D6D2F7C2FC7010E946C0D48E0F1
:102030006D2F7C2FC8010E94FD124AE06D2F7C2F6E
:10204000C7010E94FA0C46E06D2F7C2FC7010E9449
:102050008D0C2AE049E06D2F7C2FC8010E94E0130F
:102060004D2D6D2F7C2FC7010E946C0D48E06D2F08
:102070007C2FC8010E94FD126D2F7C2FC8010E9489
:102080007E136D2F7C2FC8010E9465136D2F7C2F4E
:10209000C7010E94E60C40E36D2F7C2FC7010E9410
:1020A000FA0C6D2F7C2FC7010E94E60C48E06D2FC3
:1020B0007C2FC8010E94FD126D2F7C2FC801DF917B
:1020C000CF911F910F91FF90EF90DF900C946513CB
:1020D000BF92CF92DF92EF92FF920F931F93CF9315
:1020E000DF938C01D62FC72FB42E69017C018FEFAF
:1020F000E81AF80AC7010E947E134BE06D2F7C2F6F
:10210000C8010E94FA0C44E06D2F7C2FC8010E9488
:102110008D0C2AE04AE06D2F7C2FC7010E94E0134E
:102120006D2F7C2FC8010E94E60C40E36D2F7C2FA1
:10213000C8010E94FA0C6D2F7C2FC8010E94E60C8A
:1021400048E06D2F7C2FC7010E94FD124AE06D2FE1
:102150007C2FC8010E94FA0C44E06D2F7C2FC70130
:102160000E9494142AE049E06D2F7C2FC7010E9441
:10217000E0132B2DA6016D2F7C2FC8010E94FE0DB0
:1021800049E06D2F7C2FC8010E94FA0C46E06D2FAC
:102190007C2FC7010E94CA142AE048E06D2F7C2FD3
:1021A000C7010E94E0132B2DA6016D2F7C2FC801C3
:1021B0000E94FE0D49E06D2F7C2FC8010E94FA0C91
:1021C00046E06D2F7C2FC7010E9430152AE048E0C1
:1021D0006D2F7C2FC7010E94E0132B2DA6016D2FC0
:1021E0007C2FC8010E94FE0D49E06D2F7C2FC80195
:1021F0000E94FA0C46E06D2F7C2FC7010E94CA1482
:102200002AE048E06D2F7C2FC7010E94E0132B2DA0
:10221000A6016D2F7C2FC8010E94FE0D4AE06D2F94
:102220007C2FC8010E94FA0C46E06D2F7C2FC8015C
:102230000E948D0C2AE049E06D2F7C2FC701DF91B1
:10224000CF911F910F91FF90EF90DF90CF90BF90B3
:102250000C94E013BF92CF92DF92EF92FF920F9314
:102260001F93CF93DF938C01D62FC72FB42E690114
:102270007C018FEFE81AF80AC7010E947E134AE03A
:102280006D2F7C2FC8010E94FA0C46E06D2F7C2F29
:10229000C8010E948D0C2AE049E06D2F7C2FC701F8
:1022A0000E94E0136D2F7C2FC8010E94E60C40E3D2
:1022B0006D2F7C2FC8010E94FA0C6D2F7C2FC80156
:1022C0000E94E60C48E06D2F7C2FC7010E94FD1292
:1022D00049E06D2F7C2FC8010E94FA0C46E06D2F5B
:1022E0007C2FC7010E94CA142AE048E06D2F7C2F82
:1022F000C7010E94E0132B2DA6016D2F7C2FC80172
:102300000E94FE0D49E06D2F7C2FC8010E94FA0C3F
:1023100046E06D2F7C2FC7010E9430152AE048E06F
:102320006D2F7C2FC7010E94E0132B2DA6016D2F6E
:102330007C2FC8010E94FE0D49E06D2F7C2FC80143
:102340000E94FA0C46E06D2F7C2FC7010E94CA1430
:102350002AE048E06D2F7C2FC7010E94E0132B2D4F
:10236000A6016D2F7C2FC8010E94FE0D4AE06D2F43
:102370007C2FC8010E94FA0C44E06D2F7C2FC7010E
:102380000E94AF142AE049E06D2F7C2FC7010E9404
:10239000E0132B2DA6016D2F7C2FC8010E94FE0D8E
:1023A0004BE06D2F7C2FC8010E94FA0C44E06D2F8A
:1023B0007C2FC8010E948D0C2AE04AE06D2F7C2FF3
:1023C000C701DF91CF911F910F91FF90EF90DF90A8
:1023D000CF90BF900C94E013DF92EF92FF920F9397
:1023E0001F93CF93DF937C01D62FC72FD42E8C0160
:1023F0000F5F1F4F48E0C8010E94FD124AE06D2F99
:102400007C2FC7010E94FA0C46E06D2F7C2FC7017C
:102410000E948D0C2AE049E06D2F7C2FC8010E949C
:10242000E0134D2D6D2F7C2FC7010E946C0D48E0ED
:102430006D2F7C2FC8010E94FD1249E06D2F7C2F6B
:10244000C7010E94FA0C46E06D2F7C2FC8010E9444
:10245000CA142AE048E06D2F7C2FC8010E94E013C7
:102460004D2D6D2F7C2FC7010E946C0D48E06D2F04
:102470007C2FC8010E94FD1249E06D2F7C2FC701FF
:102480000E94FA0C46E06D2F7C2FC8010E94301587
:102490002AE048E06D2F7C2FC8010E94E0134D2DEB
:1024A0006D2F7C2FC7010E946C0D48E06D2F7C2F93
:1024B000C8010E94FD1249E06D2F7C2FC7010E94C8
:1024C000FA0C46E06D2F7C2FC8010E94CA142AE046
:1024D00048E06D2F7C2FC8010E94E0134D2D6D2F19
:1024E0007C2FC7010E946C0D48E06D2F7C2FC80126
:1024F0000E94FD124AE06D2F7C2FC7010E94FA0C4A
:1025000044E06D2F7C2FC8010E94AF142AE049E0FF
:102510006D2F7C2FC8010E94E0134D2D6D2F7C2F55
:10252000C7010E946C0D48E06D2F7C2FC8010E94EE
:10253000FD124BE06D2F7C2FC7010E94FA0C44E086
:102540006D2F7C2FC7010E948D0C2AE04AE06D2F71
:102550007C2FC8010E94E0136D2F7C2FC7010E94C1
:10256000E60C40E36D2F7C2FC7010E94FA0C6D2F03
:102570007C2FC7010E94E60C48E06D2F7C2FC8011C
:102580000E94FD126D2F7C2FC8010E947E136D2FBB
:102590007C2FC801DF91CF911F910F91FF90EF9099
:1025A000DF900C946513CA0130E0321302C080E062
:1025B00008950596FC0131974081413310F43F5F47
:1025C000F4CF81E00895CA012150022E000C330B94
:1025D00045E027FF02C080E0089521503109429F65
:1025E000F001439FF00D1124E80FF91F518551337D
:1025F00080F381E008950C94690C0F931F93CF939F
:10260000DF93D82FC92F8B010E94FA0CB8018D2FB0
:102610009C2F0E94C00CB8018D2F9C2F0E94F50C9E
:10262000B8018D2F9C2F0E94C00C45E0B8018D2F62
:102630009C2F0E94FA0CB8018D2F9C2FDF91CF9117
:102640001F910F910C94BB0C0F931F93CF93DF93AB
:10265000D82FC92F8B0149E10E94FA0CB8018D2FA8
:102660009C2FDF91CF911F910F910C94BB0C0F9376
:102670001F93CF93DF93D82FC92F8B010E94790C22
:1026800049E1B8018D2F9C2F0E94A40CB8018D2F19
:102690009C2F0E947E0C44E4B8018D2F9C2F0E9439
:1026A000FD12B8018D2F9C2F0E94241344E4B80121
:1026B0008D2F9C2F0E94FD12B8018D2F9C2FDF9132
:1026C000CF911F910F910C9424130F931F93CF93CD
:1026D000DF93D82FC92F8B0149E10E94FA0CB80172
:1026E0008D2F9C2F0E94BB0C4AE0B8018D2F9C2F90
:1026F000DF91CF911F910F910C94FA0C0F931F93C0
:10270000CF93DF93D82FC92F8B0144E20E94FA0C9C
:10271000B8018D2F9C2F0E94E60C40E3B8018D2F4D
:102720009C2F0E94FA0CB8018D2F9C2F0E94E60C62
:1027300048E0B8018D2F9C2F0E94FD124EE1B80198
:102740008D2F9C2F0E94FA0C46E0B8018D2F9C2FF4
:102750000E94CA0CB8018D2F9C2F0E946F0C40E381
:10276000B8018D2F9C2F0E94FA0CB8018D2F9C2F41
:102770000E94E60C48E0B8018D2F9C2F0E94FD12AC
:1027800044E2B8018D2F9C2F0E94FA0CB8018D2FC6
:102790009C2F0E94E60C40E3B8018D2F9C2F0E94D5
:1027A000FA0CB8018D2F9C2F0E94E60C48E0B8016E
:1027B0008D2F9C2FDF91CF911F910F910C94FD12C3
:1027C0000F931F93CF93DF93D82FC92F8B010E94B4
:1027D000FA0CB8018D2F9C2F0E94BB0C4AE0B80167
:1027E0008D2F9C2FDF91CF911F910F910C94FA0C9C
:1027F000CB0169E771E00C94B3050F931F93CF935E
:10280000DF938C01D62FC72F48E00E94FD1249E1CB
:102810006D2F7C2FC8010E94FA0C6D2F7C2FC801F0
:102820000E94BB0C44E46D2F7C2FC8010E94FA0C5F
:102830006D2F7C2FC8010E94C00C6D2F7C2FC8010A
:102840000E94F50C6D2F7C2FC8010E94C00C45E042
:102850006D2F7C2FC8010E94FA0C6CE871E08D2F5F
:102860009C2F0E94B30549E16D2F7C2FC8010E9467
:10287000A40C60E971E08D2F9C2F0E94B30544E405
:102880006D2F7C2FC8010E94FA0C6D2F7C2FC80180
:102890000E94C00C6D2F7C2FC8010E94F50C6D2F7B
:1028A0007C2FC8010E94C00C44E66D2F7C2FC8010C
:1028B0000E94FA0C6D2F7C2FC8010E94C00C6D2F56
:1028C0007C2FC8010E94F50C6D2F7C2FC8010E943F
:1028D000C00C44E66D2F7C2FC8010E94FA0C6D2FAE
:1028E0007C2FC8010E94C00C6D2F7C2FC8010E9454
:1028F000F50C64E971E08D2F9C2F0E94B30544E62E
:102900006D2F7C2FC8010E948D0C68E971E08D2F1E
:102910009C2F0E94B3056D2F7C2FC801DF91CF91B2
:102920001F910F910C94F50CFF920F931F93CF936F
:10293000DF93D82FC92F8B01F42E0E94EB0C4F2D63
:10294000B8018D2F9C2F0E94FA0CB8018D2F9C2F5F
:10295000DF91CF911F910F91FF900C94F00CFF929B
:102960000F931F93CF93DF93D82FC92F8B01F42E92
:102970000E94F00C4F2DB8018D2F9C2F0E94FA0C55
:10298000B8018D2F9C2FDF91CF911F910F91FF9058
:102990000C94EB0CFF920F931F93CF93DF93D82FE0
:1029A000C92F8B01F42E0E94C00C4F2DB8018D2F22
:1029B0009C2F0E94FA0CB8018D2F9C2FDF91CF9194
:1029C0001F910F91FF900C94C00C0F931F93CF9306
:1029D000DF93D82FC92F8B010E94830C44E6B801E6
:1029E0008D2F9C2F0E948D0CB8018D2F9C2F0E9443
:1029F000880CB8018D2F9C2F0E94F50C44E6B8017D
:102A00008D2F9C2F0E94CA14B8018D2F9C2F0E94DD
:102A1000F50C44E6B8018D2F9C2F0E94CA14B80112
:102A20008D2F9C2F0E94F50CB8018D2F9C2F0E949A
:102A3000C00C45E0B8018D2F9C2F0E94FA0CB80104
:102A40008D2F9C2F0E9437134AE0B8018D2F9C2FA9
:102A5000DF91CF911F910F910C94FA0C0C94CA1432
:102A6000FF920F931F93CF93DF93D82FC92F8B0122
:102A7000F42E0E94E10C4F2DB8018D2F9C2F0E9447
:102A8000FA0CB8018D2F9C2FDF91CF911F910F91E0
:102A9000FF900C94E10C87B1807E87B9089586B1D0
:102AA0008170089586B18270089586B1847008950A
:102AB00086B18870089586B180710895349B07C0EF
:102AC000329B05C086B183FB882780F9089580E09A
:102AD0000895309B06C0329B04C086B186958170F4
:102AE000089580E0089586B182FB882780F90895D3
:102AF00030990AC0319908C0329906C0339904C090
:102B000086B182958170089581E00895329B06C058
:102B1000349904C086B180958170089580E008954D
:102B20008CE991E00E94180590E080E008958CE91E
:102B300091E00C9490008CE991E00C94F007AA1BB2
:102B4000BB1B51E107C0AA1FBB1FA617B70710F098
:102B5000A61BB70B881F991F5A95A9F780959095CA
:102B6000BC01CD01089597FB072E16F4009407D001
:102B700077FD09D00E949F1507FC05D03EF4909583
:102B800081959F4F0895709561957F4F0895052E0B
:102B900097FB1EF400940E94DE1557FD07D00E949B
:102BA000F71507FC03D04EF40C94DE1550954095B4
:102BB000309521953F4F4F4F5F4F089590958095E9
:102BC000709561957F4F8F4F9F4F0895EE0FFF1FB8
:102BD0000590F491E02D09940E941916A59F900D7F
:102BE000B49F900DA49F800D911D11240895A1E222
:102BF0001A2EAA1BBB1BFD010DC0AA1FBB1FEE1F77
:102C0000FF1FA217B307E407F50720F0A21BB30BC1
:102C1000E40BF50B661F771F881F991F1A9469F73D
:102C200060957095809590959B01AC01BD01CF0199
:102C30000895A29FB001B39FC001A39F700D811D95
:102C40001124911DB29F700D811D1124911D0895B5
:102C5000FB01DC0102C001900D9241505040D8F7B9
:102C6000089510E0CFE3D0E004C0FE010E94E61515
:102C70002196C034D107C9F7F894FFCF00010701AE
:102C80000A010D01100113011601240113011301A2
:102C90000405060508050A050C0517050E051105AE
:042CA00013051505FE
:102CA4008D857E767069635E58534F4A46423E3B3B
:102CB4003734312E2C29272523211F1D1B1A1817C1
:102CC4001514131211E295A600E295A300E295A94A
:102CD40000E2948F00E2949300E2948C00E29490DA
:102CE40000E2948000E2948100E2948300E2948202
:102CF40000E2959700E2959000E2969300E29591A8
:102D040000E295B100E295B2000A002000E2959439
:102D140000E2959A00E2959D0050726F64756974A3
:102D2400207061723A2041746C617300E2949700E0
:0C2D3400E2949B00E2949400E29498006A
:00000001FF
